S00F00005A65726F5838362E73726563AF
S11300000C942A000C9447000C9447000C9447006D
S11300100C9491040C9447000C9447000C945A04DB
S11300200C9447000C9447000C9423040C94470050
S11300300C9447000C9447000C9447000C94470020
S11300400C9447000C9447000C9447000C94470010
S11300500C94470011241FBECFE5D8E0DEBFCDBF0E
S113006010E0A0E6B0E0E2ECF2E102C005900D92EF
S1130070A236B107D9F720E0A2E6B0E001C01D9294
S1130080A037B207E1F70E9449000C945F090C9471
S11300900000EF92FF920F93CF93DF93CDB7DEB7BB
S11300A0AC970FB6F894DEBF0FBECDBF8AE390E0E5
S11300B027E330E044E350E061E370E0EFEFDB017D
S11300C0EC93DA01EC93D901EC93DC01EC9362E05C
S11300D070E08EE40E94C8040F2EFFE9EF2EF0E0DA
S11300E0FF2EF02D01E020E040E050E065E070E0FC
S11300F0CE0101960E944105CE010C960F2EF0EA26
S1130100EF2EF1E0FF2EF02D02E020E040E050E081
S11301106AE070E00E944105CE0147960F2EF1EA95
S1130120EF2EF2E0FF2EF02D03E020E040E050E05F
S11301306FE070E00E9441050E946407FDCFCF93F9
S1130140DF93CDB7DEB76C970FB6F894DEBF0FBE62
S1130150CDBF8BE390E02FEFFC01208380E090E0A3
S1130160A0EAB0E489839A83AB83BC8320E030E0C7
S11301704AE753E469817A818B819C810E94CA0891
S1130180DC01CB018B8B9C8BAD8BBE8B20E030E0F4
S113019040E85FE36B897C898D899E890E944408CD
S11301A088232CF481E090E0988F8F8B3FC020E06F
S11301B03FEF4FE757E46B897C898D899E890E94C4
S11301C0C50818164CF520E030E040E251E469819E
S11301D07A818B819C810E94CA08DC01CB01BC011D
S11301E0CD010E944908DC01CB01988F8F8B0FC091
S11301F089E190E09A8F898F898D9A8D0197F1F723
S11302009A8F898F8F89988D0197988F8F8B8F897B
S1130210988D892B69F714C06B897C898D899E8997
S11302200E944908DC01CB01988F8F8B8F89988DB0
S11302309C8F8B8F8B8D9C8D0197F1F79C8F8B8F6F
S11302408BE390E0FC01108280E090E0A0EAB0E44F
S11302508D839E83AF83B88720E030E04AE753E480
S11302606D817E818F8198850E94CA08DC01CB0153
S113027089879A87AB87BC8720E030E040E85FE35A
S113028069857A858B859C850E94440888232CF493
S113029081E090E09E878D873FC020E03FEF4FE7ED
S11302A057E469857A858B859C850E94C508181654
S11302B04CF520E030E040E251E46D817E818F8195
S11302C098850E94CA08DC01CB01BC01CD010E94C3
S11302D04908DC01CB019E878D870FC089E190E03E
S11302E0988B8F878F8598890197F1F7988B8F87E3
S11302F08D859E8501979E878D878D859E85892B0B
S113030069F714C069857A858B859C850E944908A4
S1130310DC01CB019E878D878D859E859A8B898B89
S113032089899A890197F1F79A8B898B00006C96D9
S11303300FB6F894DEBF0FBECDBFDF91CF91089505
S1130340CF93DF93CDB7DEB76C970FB6F894DEBFCB
S11303500FBECDBF88E390E02FEFFC01208380E047
S113036090E0A0EAB0E489839A83AB83BC8320E065
S113037030E04AE753E469817A818B819C810E9451
S1130380CA08DC01CB018B8B9C8BAD8BBE8B20E030
S113039030E040E85FE36B897C898D899E890E9407
S11303A0440888232CF481E090E0988F8F8B3FC021
S11303B020E03FEF4FE757E46B897C898D899E8964
S11303C00E94C50818164CF520E030E040E251E4E4
S11303D069817A818B819C810E94CA08DC01CB01EE
S11303E0BC01CD010E944908DC01CB01988F8F8BA1
S11303F00FC089E190E09A8F898F898D9A8D01973A
S1130400F1F79A8F898F8F89988D0197988F8F8BA9
S11304108F89988D892B69F714C06B897C898D89A4
S11304209E890E944908DC01CB01988F8F8B8F89AC
S1130430988D9C8F8B8F8B8D9C8D0197F1F79C8F62
S11304408B8F88E390E0FC01108280E090E0A0EACA
S1130450B0E48D839E83AF83B88720E030E04AE721
S113046053E46D817E818F8198850E94CA08DC01E6
S1130470CB0189879A87AB87BC8720E030E040E8CE
S11304805FE369857A858B859C850E94440888236F
S11304902CF481E090E09E878D873FC020E03FEF01
S11304A04FE757E469857A858B859C850E94C5084A
S11304B018164CF520E030E040E251E46D817E8175
S11304C08F8198850E94CA08DC01CB01BC01CD0153
S11304D00E944908DC01CB019E878D870FC089E10A
S11304E090E0988B8F878F8598890197F1F7988B87
S11304F08F878D859E8501979E878D878D859E85A7
S1130500892B69F714C069857A858B859C850E943F
S11305104908DC01CB019E878D878D859E859A8B4A
S1130520898B89899A890197F1F79A8B898B0000C5
S11305306C960FB6F894DEBF0FBECDBFDF91CF919E
S11305400895CF93DF93CDB7DEB76C970FB6F894C9
S1130550DEBF0FBECDBF85E390E02FEFFC0120830B
S113056080E090E0A0EAB0E489839A83AB83BC8303
S113057020E030E04AE753E469817A818B819C81F1
S11305800E94CA08DC01CB018B8B9C8BAD8BBE8B8C
S113059020E030E040E85FE36B897C898D899E89A7
S11305A00E94440888232CF481E090E0988F8F8B7C
S11305B03FC020E03FEF4FE757E46B897C898D898A
S11305C09E890E94C50818164CF520E030E040E2F0
S11305D051E469817A818B819C810E94CA08DC0183
S11305E0CB01BC01CD010E944908DC01CB01988FED
S11305F08F8B0FC089E190E09A8F898F898D9A8DB6
S11306000197F1F79A8F898F8F89988D0197988F29
S11306108F8B8F89988D892B69F714C06B897C899E
S11306208D899E890E944908DC01CB01988F8F8BAC
S11306308F89988D9C8F8B8F8B8D9C8D0197F1F773
S11306409C8F8B8F85E390E0FC01108280E090E02A
S1130650A0EAB0E48D839E83AF83B88720E030E0C6
S11306604AE753E46D817E818F8198850E94CA0890
S1130670DC01CB0189879A87AB87BC8720E030E017
S113068040E85FE369857A858B859C850E944408F0
S113069088232CF481E090E09E878D873FC020E082
S11306A03FEF4FE757E469857A858B859C850E94E7
S11306B0C50818164CF520E030E040E251E46D81A5
S11306C07E818F8198850E94CA08DC01CB01BC0120
S11306D0CD010E944908DC01CB019E878D870FC0A4
S11306E089E190E0988B8F878F8598890197F1F73E
S11306F0988B8F878D859E8501979E878D878D85A5
S11307009E85892B69F714C069857A858B859C85BC
S11307100E944908DC01CB019E878D878D859E85CB
S11307209A8B898B89899A890197F1F79A8B898B9E
S113073000006C960FB6F894DEBF0FBECDBFDF91FC
S1130740CF910895CF93DF9300D000D01F92CDB7FF
S1130750DEB789837B836A835D834C838981833598
S1130760F1F478948CE590E02CE7FC01208383E598
S113077090E028E2FC01208383E590E023E530E06B
S1130780F90120812260FC01208389E590E029E5BC
S113079030E0F90120812260FC01208345C0898179
S11307A08E34F9F478948FE490E020E8FC012083FF
S11307B08EE490E029E0FC0120838BE490E023E0C8
S11307C0FC0120838AE490E027EEFC01208389E584
S11307D090E029E530E0F90120812061FC012083CB
S11307E023C089818534F1F4789483E490E02CE784
S11307F0FC01208385E490E028E2FC01208385E469
S113080090E025E430E0F90120812260FC0120839E
S113081089E590E029E530E0F90120812068FC01B8
S1130820208302C081E007C08C819D819093630086
S11308308093620080E00F900F900F900F900F90C4
S1130840DF91CF9108951F920F9200905F000F9255
S113085011242F933F934F935F936F937F938F93C1
S11308609F93AF93BF93EF93FF93CF93DF93CDB752
S1130870DEB78091620090916300892B31F0809102
S1130880620090916300FC0109950000DF91CF9113
S1130890FF91EF91BF91AF919F918F917F916F9154
S11308A05F914F913F912F910F9000925F000F90B5
S11308B01F9018951F920F9200905F000F921124C1
S11308C02F933F934F935F936F937F938F939F9354
S11308D0AF93BF93EF93FF93CF93DF93CDB7DEB77F
S11308E08091620090916300892B31F080916200C5
S11308F090916300FC0109950000DF91CF91FF9175
S1130900EF91BF91AF919F918F917F916F915F9183
S11309104F913F912F910F9000925F000F901F9085
S113092018951F920F9200905F000F9211242F933D
S11309303F934F935F936F937F938F939F93AF9363
S1130940BF93EF93FF93CF93DF93CDB7DEB780913F
S1130950620090916300892B31F080916200909144
S11309606300FC0109950000DF91CF91FF91EF91A5
S1130970BF91AF919F918F917F916F915F914F91B3
S11309803F912F910F9000925F000F901F90189548
S1130990CF93DF9300D000D0CDB7DEB78A837C83BA
S11309A06B8319820DC0898191E0980F9983882FF8
S11309B090E0880F991F8C599F4FFC01118210827F
S11309C08981853080F38B819C8143EF54E0BC01A5
S11309D08A810E94A20380E00F900F900F900F90E5
S11309E0DF91CF910895CF93DF931F92CDB7DEB7F8
S11309F019823EC08981882F90E0880F991F8C59F5
S1130A009F4FFC0180819181892B79F18981882F05
S1130A1090E0880F991F8C599F4FFC018081918130
S1130A20FC012281338121503109FC01338322836B
S1130A308981882F90E0880F991F8C599F4FFC0162
S1130A4080819181FC0182819381181619066CF0D2
S1130A508981882F90E0880F991F8C599F4FFC0142
S1130A608081918121E0FC01208789818F5F8983C6
S1130A708981853008F4BECF00000F90DF91CF91BB
S1130A800895EF92FF920F93CF93DF93CDB7DEB724
S1130A902B970FB6F894DEBF0FBECDBF9B838A831E
S1130AA07D836C835F834E8328870987FB86EA8670
S1130AB0F8948A819B81892B09F4EDC08885813063
S1130AC021F08885882309F0E6C08A859B85892BD7
S1130AD009F4E1C08985882F90E0880F991F8C590B
S1130AE09F4FFC0180819181892B09F0D1C08985B8
S1130AF0882F90E0880F991F8C599F4F2A813B8142
S1130B00FC01318320838985882F90E0880F991F09
S1130B108C599F4FFC01808191812C813D81FC0186
S1130B20318320838985882F90E0880F991F8C5901
S1130B309F4FFC01808191814C815D812E813F8199
S1130B40240F351FFC01338322838985882F90E08D
S1130B50880F991F8C599F4FFC01808191812885B2
S1130B60FC0126838985882F90E0880F991F8C5972
S1130B709F4FFC01808191812A853B85FC0135834F
S1130B8024838985882F90E0880F991F8C599F4F63
S1130B90FC01808191812985FC0127838985882F27
S1130BA090E0880F991F8C599F4FFC01808191819F
S1130BB021E0FC0120878985282F30E080916000A6
S1130BC09091610028173907C8F48985882F90E02F
S1130BD0880F991F8C599F4FFC018081918120912E
S1130BE0600030916100FC01328721878985882F5C
S1130BF090E090936100809360003DC089858150AE
S1130C00898303C08981815089838981882F90E0F9
S1130C10880F991F8C599F4FFC0180819181892BEA
S1130C2089F38985882F90E0880F991F8C599F4FED
S1130C30FC01808191812981222F30E0220F331F12
S1130C402C593F4FF90120813181F90121853285E9
S1130C50FC01328721878981882F90E0880F991FB2
S1130C608C599F4FFC01808191812985222F30E08E
S1130C70FC013287218780916E0090916F0001966C
S1130C8090936F0080936E007894000080E005C01C
S1130C90789482E002C0789481E02B960FB6F894A1
S1130CA0DEBF0FBECDBFDF91CF910F91FF90EF90CC
S1130CB00895CF93DF9300D01F92CDB7DEB79B8307
S1130CC08A83F8948A819B81892B09F4F5C08A81EF
S1130CD09B81FC018781882F90E0880F991F8C5994
S1130CE09F4FFC0180819181892B09F4E2C08A81A4
S1130CF09B81FC018781882F90E0880F991F8C5974
S1130D009F4FFC0180819181FC018781282F30E075
S1130D10809160009091610028173907A9F48A81B5
S1130D209B81FC018781882F90E0880F991F8C5943
S1130D309F4FFC0180819181FC0181859285909374
S1130D406100809360003EC08A819B81FC018781A1
S1130D50882F90E0880F991F8C599F4FFC01808148
S1130D609181FC0187818150898303C089818150ED
S1130D7089838981882F90E0880F991F8C599F4F10
S1130D80FC0180819181892B89F38981882F90E0EE
S1130D90880F991F8C599F4FFC01808191812A8172
S1130DA03B81F9012781222F30E0220F331F2C5978
S1130DB03F4FF90120813181F90121853285FC0100
S1130DC0328721878A819B81FC018781882F90E06B
S1130DD0880F991F8C599F4FFC01118210828A81C0
S1130DE09B81FC018781882F90E0880F991F8C5983
S1130DF09F4FFC0180819181FC01118210828A81C4
S1130E009B81FC018781882F90E0880F991F8C5962
S1130E109F4FFC0180819181FC01138212828A819F
S1130E209B81FC018781882F90E0880F991F8C5942
S1130E309F4FFC0180819181FC0116828A819B81F4
S1130E40FC018781882F90E0880F991F8C599F4F50
S1130E50FC0180819181FC01158214828A819B812D
S1130E60FC018781882F90E0880F991F8C599F4F30
S1130E70FC0180819181FC0117828A819B81FC01A4
S1130E808781882F90E0880F991F8C599F4FFC0110
S1130E908081918122E0FC01208780916E009091F5
S1130EA06F00019790936F0080936E00789480E0B8
S1130EB005C0789483E002C0789481E00F900F908D
S1130EC00F90DF91CF910895CF93DF9300D0CDB7EA
S1130ED0DEB7809160009091610089831A82C0C05E
S1130EE08981882F90E0880F991F8C599F4FFC01AE
S1130EF080819181892B09F4B0C08981882F90E089
S1130F00880F991F8C599F4FFC0180819181FC01AE
S1130F1082819381181619060CF490C08981882F58
S1130F2090E0880F991F8C599F4FFC01808191811B
S1130F30FC018085813009F081C08981882F90E08F
S1130F40880F991F8C599F4FFC0180819181FC016E
S1130F508681882309F043C08981882F90E0880F17
S1130F60991F8C599F4FFC0180819181FC0110864F
S1130F708981882F90E0880F991F8C599F4FFC011D
S1130F8080819181FC0184819581FC01099589818D
S1130F90882F90E0880F991F8C599F4FFC01808106
S1130FA091812981222F30E0220F331F2C593F4F8A
S1130FB0F90120813181F90120813181FC013383E0
S1130FC022838981882F90E0880F991F8C599F4F25
S1130FD0FC018081918122E0FC01208727C0898166
S1130FE0882F90E0880F991F8C599F4FFC018081B6
S1130FF09181FC0110868981882F90E0880F991FC8
S11310008C599F4FFC0180819181FC0184819581E1
S1131010FC0109958981882F90E0880F991F8C59CC
S11310209F4FFC01808191810E9459068A818F5FC4
S11310308A83809160009091610089838981882FDF
S113104090E0880F991F8C599F4FFC0180819181FA
S1131050FC0181859285898303C089818F5F89839F
S11310608981863058F48A81282F30E080916E007F
S113107090916F008217930708F032CF00000F9011
S11310800F90DF91CF9108950E94780808F481E0D1
S113109008950E94A40888F09F5798F0B92F9927C3
S11310A0B751B0F0E1F0660F771F881F991F1AF04F
S11310B0BA95C9F714C0B13091F00E94BE08B1E0EE
S11310C008950C94BE08672F782F8827B85F39F0ED
S11310D0B93FCCF3869577956795B395D9F73EF4E8
S11310E090958095709561957F4F8F4F9F4F089590
S11310F0990F0008550FAA0BE0E8FEEF1616170625
S1131100E807F907C0F012161306E407F50798F08C
S1131110621B730B840B950B39F40A2661F0232BA5
S1131120242B252B21F408950A2609F4A140A69521
S11311308FEF811D811D089557FD9058440F551F51
S113114059F05F3F71F04795880F97FB991F61F045
S11311509F3F79F087950895121613061406551FBC
S1131160F2CF4695F1DF08C0161617061806991F28
S1131170F1CF86957105610508940895E894BB271D
S113118066277727CB0197F908950E94780808F419
S11311908FEF08950E94DD080C944E090E944009C7
S11311A038F00E94470920F0952311F00C94370978
S11311B00C943D0911240C94BF080E949C0870F300
S11311C0959FC1F3950F50E0551F629FF001729FE8
S11311D0BB27F00DB11D639FAA27F00DB11DAA1FF7
S11311E0649F6627B00DA11D661F829F2227B00D44
S11311F0A11D621F739FB00DA11D621F839FA00DCF
S1131200611D221F749F3327A00D611D231F849F1E
S1131210600D211D822F762F6A2F11249F57504075
S11312209AF0F1F088234AF0EE0FFF1FBB1F661FF0
S1131230771F881F91505040A9F79E3F510580F0B9
S11312400C9437090C94BF085F3FE4F3983ED4F341
S1131250869577956795B795F795E7959F5FC1F75D
S1131260FE2B880F911D9695879597F9089597F908
S11312709F6780E870E060E008959FEF80EC089538
S113128000240A9416161706180609060895002461
S11312900A9412161306140605060895092E0394DB
S11312A0000C11F4882352F0BB0F40F4BF2B11F44F
S11312B060FF04C06F5F7F4F8F4F9F4F0895F89476
S10512C0FFCF5A
S10512C2050021
S9030000FC
