S00F00005A65726F5838362E73726563AF
S11300000C942A000C9447000C9447000C9447006D
S11300100C94C8010C9447000C9447000C94910173
S11300200C9447000C9447000C945A010C9447001C
S11300300C9447000C9447000C9447000C94470020
S11300400C9447000C9447000C9447000C94470010
S11300500C94470011241FBECFE5D8E0DEBFCDBF0E
S113006010E0A0E6B0E0E2EFFDE002C005900D92E2
S1130070A236B107D9F720E0A2E6B0E001C01D9294
S1130080A83AB207E1F70E9449000C94F7060C94D1
S11300900000EF92FF920F93CF93DF93CDB7DEB7BB
S11300A08AE390E027E330E044E350E061E370E06A
S11300B0EFEFDB01EC93DA01EC93D901EC93DC0173
S11300C0EC9362E070E08EE40E94FF010F2EF9E9E8
S11300D0EF2EF0E0FF2EF02D01E020E040E050E0B4
S11300E065E070E08AE990E00E9492020F2EFEEA39
S11300F0EF2EF0E0FF2EF02D02E020E040E050E093
S11301006AE070E080E790E00E9492020F2EFAEC21
S1130110EF2EF0E0FF2EF02D03E020E040E050E071
S11301206FE070E08EE790E00E9492020E94CA05A0
S1130130FDCFCF93DF93CDB7DEB78BE390E0FC0127
S113014020812F5FFC01208364E670E08AE990E05F
S11301500E94BC040000DF91CF9108950F931F9378
S1130160CF93DF93CDB7DEB788E390E0FC01208125
S11301702F5FFC01208304E610E021E040E060E012
S113018080E790E00E9417050000DF91CF911F9156
S11301900F910895CF93DF93CDB7DEB785E390E059
S11301A0FC0120812F5FFC0120830000DF91CF91AF
S11301B00895CF93DF9300D000D01F92CDB7DEB760
S11301C089837B836A835D834C8389818335F1F4DE
S11301D078948CE590E02CE7FC01208383E590E0A3
S11301E028E2FC01208383E590E023E530E0F90177
S11301F020812260FC01208389E590E029E530E03C
S1130200F90120812260FC01208345C089818E345C
S1130210F9F478948FE490E020E8FC0120838EE4E4
S113022090E029E0FC0120838BE490E023E0FC01D2
S113023020838AE490E027EEFC01208389E590E0A6
S113024029E530E0F90120812061FC01208323C0ED
S113025089818534F1F4789483E490E02CE7FC01FF
S1130260208385E490E028E2FC01208385E490E08B
S113027025E430E0F90120812260FC01208389E536
S113028090E029E530E0F90120812068FC01208319
S113029002C081E007C08C819D81909363008093AC
S11302A0620080E00F900F900F900F900F90DF91FD
S11302B0CF9108951F920F9200905F000F92112426
S11302C02F933F934F935F936F937F938F939F935A
S11302D0AF93BF93EF93FF93CF93DF93CDB7DEB785
S11302E08091620090916300892B31F080916200CB
S11302F090916300FC0109950000DF91CF91FF917B
S1130300EF91BF91AF919F918F917F916F915F9189
S11303104F913F912F910F9000925F000F901F908B
S113032018951F920F9200905F000F9211242F9343
S11303303F934F935F936F937F938F939F93AF9369
S1130340BF93EF93FF93CF93DF93CDB7DEB7809145
S1130350620090916300892B31F08091620090914A
S11303606300FC0109950000DF91CF91FF91EF91AB
S1130370BF91AF919F918F917F916F915F914F91B9
S11303803F912F910F9000925F000F901F9018954E
S11303901F920F9200905F000F9211242F933F93AE
S11303A04F935F936F937F938F939F93AF93BF9379
S11303B0EF93FF93CF93DF93CDB7DEB780916200C5
S11303C090916300892B31F08091620090916300D9
S11303D0FC0109950000DF91CF91FF91EF91BF914E
S11303E0AF919F918F917F916F915F914F913F91C9
S11303F02F910F9000925F000F901F901895CF934C
S1130400DF9300D000D0CDB7DEB78A837C836B83C3
S113041019820DC0898191E0980F9983882F90E00B
S1130420880F991F8C599F4FFC011182108289817A
S1130430853080F38B819C814AE252E0BC018A8141
S11304400E94D90080E00F900F900F900F90DF91E1
S1130450CF910895CF93DF931F92CDB7DEB7198262
S113046058C08981882F90E0880F991F8C599F4F1D
S1130470FC0180819181892B09F448C08981882FEE
S113048090E0880F991F8C599F4FFC0180819181C6
S1130490FC01958581E089278823C1F18981882F12
S11304A090E0880F991F8C599F4FFC012081318166
S11304B0F90182819381A481B5810197A109B109D0
S11304C0F90182839383A483B5838981882F90E083
S11304D0880F991F8C599F4FFC0180819181FC01E9
S11304E082819381A481B581181619061A061B0608
S11304F06CF08981882F90E0880F991F8C599F4F49
S1130500FC018081918121E0FC01228789818F5F38
S113051089838981853008F4A4CF00000F90DF918E
S1130520CF910895EF92FF920F93CF93DF93CDB7BE
S1130530DEB72B970FB6F894DEBF0FBECDBF9B83FB
S11305408A837D836C835F834E8328870987FB8638
S1130550EA86F8948A819B81892B09F4F2C0888504
S1130560813021F08885882309F0EBC08A859B853A
S1130570892B09F4E6C08985882F90E0880F991F9C
S11305808C599F4FFC0180819181892B09F0D6C041
S11305908985882F90E0880F991F8C599F4F2A8155
S11305A03B81FC01318320838985882F90E0880F6B
S11305B0991F8C599F4FFC01808191812C813D8131
S11305C0FC01318320838985882F90E0880F991F4F
S11305D08C599F4FFC01208131814C815D818E813A
S11305E09F81840F951FCC01A0E0B0E0F9018283C4
S11305F09383A483B5838985882F90E0880F991FFE
S11306008C599F4FFC01808191812885FC012087B2
S11306108985882F90E0880F991F8C599F4FFC0182
S1130620808191812A853B85FC01378326838985D6
S1130630882F90E0880F991F8C599F4FFC0180816F
S113064091812985FC0121878985882F90E0880F75
S1130650991F8C599F4FFC018081918121E0FC01FD
S113066022878985282F30E0809160009091610075
S113067028173907C8F48985882F90E0880F991FB7
S11306808C599F4FFC0180819181209160003091B1
S11306906100FC01348723878985882F90E090933B
S11306A06100809360003DC089858150898303C0C7
S11306B08981815089838981882F90E0880F991FCF
S11306C08C599F4FFC0180819181892B89F3898505
S11306D0882F90E0880F991F8C599F4FFC018081CF
S11306E091812981222F30E0220F331F2C593F4F53
S11306F0F90120813181F90123853485FC01348796
S113070023878981882F90E0880F991F8C599F4FE8
S1130710FC01808191812985222F30E0FC013487FE
S1130720238780916E0090916F00019690936F00E3
S113073080936E007894000080E005C0789482E095
S113074002C0789481E02B960FB6F894DEBF0FBEFA
S1130750CDBFDF91CF910F91FF90EF900895CF938C
S1130760DF9300D01F92CDB7DEB79B838A83F894C2
S11307708A819B81892B09F4F7C08A819B81FC01C2
S11307808185882F90E0880F991F8C599F4FFC0119
S113079080819181892B09F4E4C08A819B81FC01C9
S11307A08185882F90E0880F991F8C599F4FFC01F9
S11307B080819181FC018185282F30E08091600047
S11307C09091610028173907A9F48A819B81FC0163
S11307D08185882F90E0880F991F8C599F4FFC01C9
S11307E080819181FC01838594859093610080933D
S11307F060003EC08A819B81FC018185882F90E046
S1130800880F991F8C599F4FFC0180819181FC01B5
S113081081858150898303C089818150898389813D
S1130820882F90E0880F991F8C599F4FFC0180817D
S11308309181892B89F38981882F90E0880F991FF2
S11308408C599F4FFC01808191812A813B81F90160
S11308502185222F30E0220F331F2C593F4FF901FD
S113086020813181F90123853485FC013487238774
S11308708A819B81FC018185882F90E0880F991FD4
S11308808C599F4FFC01118210828A819B81FC014B
S11308908185882F90E0880F991F8C599F4FFC0108
S11308A080819181FC01118210828A819B81FC01EB
S11308B08185882F90E0880F991F8C599F4FFC01E8
S11308C080819181FC0112821382148215828A81B3
S11308D09B81FC018185882F90E0880F991F8C599A
S11308E09F4FFC0180819181FC0110868A819B814C
S11308F0FC018185882F90E0880F991F8C599F4FA8
S1130900FC0180819181FC01178216828A819B817E
S1130910FC018185882F90E0880F991F8C599F4F87
S1130920FC0180819181FC0111868A819B81FC01FB
S11309308185882F90E0880F991F8C599F4FFC0167
S11309408081918122E0FC01228780916E00909148
S11309506F00019790936F0080936E00789480E00D
S113096005C0789483E002C0789481E00F900F90E2
S11309700F90DF91CF910895CF93DF9300D000D0F3
S1130980CDB7DEB79A8389837C836B83F89489819E
S11309909A81892B09F442C089819A81FC0181855D
S11309A0882F90E0880F991F8C599F4FFC018081FC
S11309B09181892B81F189819A81FC018185882F1C
S11309C090E0880F991F8C599F4FFC0160817181C1
S11309D089819A81FC018185882F90E0880F991F75
S11309E08C599F4FFC0180819181FC0122813381CC
S11309F0448155818B819C81CC01A0E0B0E0820FC1
S1130A00931FA41FB51FFB0182839383A483B58323
S1130A10789480E005C0789483E002C0789481E003
S1130A200F900F900F900F90DF91CF910895AF9298
S1130A30BF92CF92DF92EF92FF920F931F93CF93C7
S1130A40DF93CDB7DEB729970FB6F894DEBF0FBE9C
S1130A50CDBF9A8389836B834C832D831F830E833D
S1130A60F89489819A81892B09F481C089819A81BA
S1130A70DC0119968C91882F90E0880F991F8C596E
S1130A809F4FFC0180819181892B09F46DC089817C
S1130A909A81DC0119968C91882F90E0880F991F18
S1130AA08C599F4FFC010190F081E02DF987E88774
S1130AB089819A81DC0119968C91882F90E0880FA6
S1130AC0991F8C599F4FFC0180819181FC01828187
S1130AD09381A481B5815C016D018B81882F90E0A5
S1130AE0A0E0B0E09C01AD0160E87EEE86E390E01A
S1130AF00E94CD067B018C018C81282F30E040E0E0
S1130B0050E080E69AEEDC010E94DD06DC01CB01B8
S1130B10E80EF91E0A1F1B1F8D81282F30E040E0CC
S1130B2050E088EE93E0DC010E94DD06DC01CB019D
S1130B30A8019701280F391F4A1F5B1F8E819F81CF
S1130B40CC01A0E0B0E0820F931FA41FB51F8A0D53
S1130B509B1DAC1DBD1DE885F98582839383A48309
S1130B60B583789480E005C0789483E002C07894DB
S1130B7081E029960FB6F894DEBF0FBECDBFDF919A
S1130B80CF911F910F91FF90EF90DF90CF90BF9086
S1130B90AF900895CF93DF9300D0CDB7DEB78091A7
S1130BA060009091610089831A82E3C08981882F53
S1130BB090E0880F991F8C599F4FFC01808191818F
S1130BC0892B09F4D3C08981882F90E0880F991F5D
S1130BD08C599F4FFC0180819181FC01828193811A
S1130BE0A481B581181619061A061B060CF4AFC0A9
S1130BF08981882F90E0880F991F8C599F4FFC01A1
S1130C0080819181FC018285813009F0A0C08981B5
S1130C10882F90E0880F991F8C599F4FFC01808189
S1130C209181FC01958581E08927882309F48FC08F
S1130C308981882F90E0880F991F8C599F4FFC0160
S1130C4080819181FC018085882309F051C08981CC
S1130C50882F90E0880F991F8C599F4FFC01808149
S1130C609181FC0112868981882F90E0880F991F59
S1130C708C599F4FFC0180819181FC018681978171
S1130C80FC0109958981882F90E0880F991F8C5960
S1130C909F4FFC0180819181FC0180819181298198
S1130CA0222F30E0220F331F2C593F4FF90160816E
S1130CB07181FB012281338144815581CC01A0E003
S1130CC0B0E0820F931FA41FB51FFB01828393839F
S1130CD0A483B5838981882F90E0880F991F8C594C
S1130CE09F4FFC018081918122E0FC01228727C073
S1130CF08981882F90E0880F991F8C599F4FFC01A0
S1130D0080819181FC0112868981882F90E0880F6F
S1130D10991F8C599F4FFC0180819181FC01868130
S1130D209781FC0109958981882F90E0880F991F8C
S1130D308C599F4FFC01808191810E94AF038A816D
S1130D408F5F8A838091600090916100898389819B
S1130D50882F90E0880F991F8C599F4FFC01808148
S1130D609181FC0183859485898303C089818F5F88
S1130D7089838981863058F48A81282F30E08091D4
S1130D806E0090916F008217930708F00FCF000058
S1130D900F900F90DF91CF910895DB018F939F9374
S1130DA00E94DD06BF91AF91A29F800D911DA39F6C
S1130DB0900DB29F900D112408950E94E806A59FFE
S1130DC0900DB49F900DA49F800D911D1124089542
S1130DD0A29FB001B39FC001A39F700D811D112478
S1130DE0911DB29F700D811D1124911D0895F894D9
S1050DF0FFCF2F
S1050DF20500F6
S9030000FC
