S02300005A65726F5838365F4E6F6E507265496D70746976654B65726E656C2E73726563AB
S11300000C942A000C9434000C9434000C943400A6
S11300100C9434000C9434000C9434000C9434008C
S11300200C9434000C9434000C9434000C9434007C
S11300300C9434000C9434000C9434000C9434006C
S11300400C9434000C9434000C9434000C9434005C
S11300500C94340011241FBECFE5D8E0DEBFCDBF21
S11300600E9436000C9455000C940000CF93DF934B
S1130070CDB7DEB72A970FB6F894DEBF0FBECDBF5B
S1130080CE0101960E944900CE0106960E944900C5
S1130090FFCFFC01892B39F0138212821182108266
S11100A0148280E0089581E00895F894FFCF63
S9030000FC
