S02300005A65726F5838365F4E6F6E507265496D70746976654B65726E656C2E73726563AB
S11300000C942A000C9447000C9447000C9447006D
S11300100C94CD000C9447000C9447000C94A4005D
S11300200C9447000C9447000C947B000C944700FC
S11300300C9447000C9447000C9447000C94470020
S11300400C9447000C9447000C9447000C94470010
S11300500C94470011241FBECFE5D8E0DEBFCDBF0E
S113006010E0A0E6B0E0E0E6F8E002C005900D92F2
S1130070AA37B107D9F720E0AAE7B0E001C01D9282
S1130080A039B207E1F70E9402010C942E040C94EB
S11300900000833561F478948CE78CBF88E283BFD9
S11300A083B7826083BF89B7826089BF1CC08E34E6
S11300B069F4789480E88FBD89E08EBD83E08BBDC0
S11300C087EE8ABD89B7806189BF0DC0853489F404
S11300D078948CE783BD88E285BD85B5826085BD53
S11300E089B7806889BF50937B0040937A0080E091
S11300F0089581E008951F920F920FB60F92112474
S11301002F933F934F935F936F937F938F939F931B
S1130110AF93BF93EF93FF93E0917A00F0917B004C
S1130120309709F00995FF91EF91BF91AF919F919D
S11301308F917F916F915F914F913F912F910F908C
S11301400FBE0F901F9018951F920F920FB60F922B
S113015011242F933F934F935F936F937F938F93C8
S11301609F93AF93BF93EF93FF93E0917A00F09145
S11301707B00309709F00995FF91EF91BF91AF9102
S11301809F918F917F916F915F914F913F912F91AB
S11301900F900FBE0F901F9018951F920F920FB6DD
S11301A00F9211242F933F934F935F936F937F93F9
S11301B08F939F93AF93BF93EF93FF93E0917A0054
S11301C0F0917B00309709F00995FF91EF91BF9171
S11301D0AF919F918F917F916F915F914F913F91DB
S11301E02F910F900FBE0F901F9018958BB38F5FB8
S11301F08BBB089588B38F5F88BB089585B38F5FE9
S113020085BB08958FEF81BB84BB87BB8ABB83E525
S11302100E94A4020F2EF5E08F2EF02D0F2EF6E68D
S1130220AF2EF0E0BF2EF02D0F2EF4E1CF2ED12C07
S1130230E12CF12CF02D01E022E330E040E050E02D
S113024066EF70E080E090E00E944B020F2EF9E030
S11302508F2EF02D0F2EFBE6AF2EF0E0BF2EF02DEB
S11302600F2EFEE1CF2ED12CE12CF12CF02D02E04B
S113027024E630E040E050E06AEF70E080E090E097
S11302800E944B026894882482F80F2EF0E7AF2E68
S1130290F0E0BF2EF02D0F2EF9E1CF2ED12CE12C62
S11302A0F12CF02D03E029E130E040E050E06EEF66
S11302B070E080E090E00E944B020E94ED02FFCFCC
S11302C00895CF93DF93FC012681213081F4EC0162
S11302D00188F289E02D8F81988509951E82898590
S11302E09A85AB85BC858D879E87AF87B88BDF9158
S11302F0CF910895CF93DF93AC01EB010097C1F147
S11303002097C1F1FC01A081B181109739F4718368
S11303106083198218821B821A8224C02C8114964D
S11303208C911497281710F014C0DF01ED91FC9103
S113033011979481291718F43097B9F702C03097B0
S113034059F41196DC93CE9319821882BB83AA8345
S113035009C0FD01A0E0B0E0F983E883BB83AA8370
S1130360CD93DC93FA0184818F5F848380E003C0A2
S113037081E001C081E0DF91CF910895CF93DF93B5
S1130380C0917E00D0917F00209741F0CE010E9461
S11303900D020990D881C02D2097C1F7DF91CF912C
S11303A00895CF93DF93DC01892B69F16115710501
S11303B061F1ED91FC911197309749F1EB012C819A
S11303C08481281761F00190F081E02D9481291730
S11303D021F03097C1F783E01DC03097D1F0C08180
S11303E0D181828193819B838A83C281D3818081DD
S11303F091819983888314968C91149781501496D3
S11304008C9380E007C081E005C081E003C082E0F6
S113041001C083E0DF91CF9108950F931F93CF9391
S1130420DF93FC01458556856785708941505109E4
S113043061097109458756876787708B0091880029
S11304401091890020918A0030918B000F5F1F4F1B
S11304502F4F3F4F009388001093890020938A0008
S113046030938B00452B462B472B69F4EC0181E03C
S11304708683BF018EE790E00E94D101BE0183E82C
S113048090E00E947A01DF91CF911F910F9108951E
S11304900E94600108952F923F924F925F926F9253
S11304A07F928F92AF92BF92CF92DF92EF92FF92A0
S11304B00F93CF93DF9300D0CDB7DEB71B01290193
S11304C03A01BA82A9828CE190E00E9406035C01A1
S11304D0009731F1FC010583418652866386748658
S11304E08482328A218A4C0C5D1C6E1C7F1C4586DA
S11304F056866786708A69817A8143960E942704AA
S1130500CD28CE28CF2831F4B50183E890E00E94AD
S11305107A0107C0B5018EE790E00E947A0101C01C
S113052084E00F900F90DF91CF910F91FF90EF90A7
S1130530DF90CF90BF90AF908F907F906F905F903F
S11305404F903F902F9008958F92AF92BF92CF9289
S1130550DF92EF92FF920F93CF93C82F10928800EF
S11305601092890010928A0010928B00E3E8F0E068
S113057013821282118210821482EEE7F0E0138259
S113058012821182108214820F2EF5E08F2EF02D2C
S11305900F2EF5E7AF2EF0E0BF2EF02DC12CD12C9D
S11305A0760105E025E030E040E050E068E472E0E8
S11305B08CE790E00E944B024EEB51E068EE73E052
S11305C08C2F0E944900CF910F91FF90EF90DF9004
S11305D0CF90BF90AF908F90089503E810E0F8019A
S11305E0C081D1812097D9F3CE010E946101BE015F
S11305F0C8010E94D101BE018EE790E00E947A01F9
S1130600F801C081D181209779F7E9CF0F931F9327
S1130610CF93DF938230910510F482E090E0E09173
S11306208E00F0918F0020E030E0A0E0B0E0309741
S113063019F1408151810281138148175907C8F08B
S11306408417950769F4109731F012960C9312975A
S113065013961C9327C000938E0010938F0022C022
S11306602115310519F04217530718F49A01BD01F9
S1130670EF01DF01F801DBCF21153105F9F0281B6B
S1130680390B2430310580F48A819B816115710511
S113069021F0FB019383828304C090938F008093A5
S11306A08E00FE01329644C0FE01E20FF31F8193D7
S11306B0919322503109398328833AC020918C00C8
S11306C030918D00232B41F420916200309163001E
S11306D030938D0020938C00209160003091610054
S11306E02115310541F42DB73EB740916400509176
S11306F06500241B350BE0918C00F0918D00E2170E
S1130700F307A0F42E1B3F0B2817390778F0AC0130
S11307104E5F5F4F2417350748F04E0F5F1F50930D
S11307208D0040938C008193919302C0E0E0F0E04F
S1130730CF01DF91CF911F910F910895CF93DF9354
S1130740009709F481C0FC01329713821282A091B0
S11307508E00B0918F00109781F420813181820F37
S1130760931F20918C0030918D002817390751F583
S1130770F0938D00E0938C0067C0ED0120E030E041
S1130780CE17DF0740F44A815B819E014115510574
S1130790F1F0EA01F5CFD383C28340815181840F04
S11307A0951FC817D90759F488819981840F951F1B
S11307B00296918380838A819B819383828321150E
S11307C0310529F4F0938F00E0938E003DC0E901D8
S11307D0FB83EA8349915991C40FD51FEC17FD0798
S11307E061F480819181840F951F0296E9019983B8
S11307F08883828193819B838A83E0E0F0E0129670
S11308008D919C911397009719F0FD01DC01F7CFAE
S11308108D919C9111979D012E5F3F4F820F931FE5
S113082020918C0030918D002817390769F4309796
S113083029F410928F0010928E0002C0138212824B
S1130840B0938D00A0938C00DF91CF910895FB01AC
S1130850DC0101900D920020E1F70895F894FFCF98
S113086000009000200054534B310054534B32008D
S10D087054534B33007473740000FA
S9030000FC
