S02300005A65726F5838365F4E6F6E507265496D70746976654B65726E656C2E73726563AB
S11300000C942A000C9447000C9447000C9447006D
S11300100C94CD000C9447000C9447000C94A4005D
S11300200C9447000C9447000C947B000C944700FC
S11300300C9447000C9447000C9447000C94470020
S11300400C9447000C9447000C9447000C94470010
S11300500C94470011241FBECFE5D8E0DEBFCDBF0E
S113006010E0A0E6B0E0EAE9F7E002C005900D92E6
S1130070A637B107D9F720E0A6E7B0E001C01D928A
S1130080AA38B207E1F70E9402010C94CB030C9446
S11300900000833561F478948CE78CBF88E283BFD9
S11300A083B7836083BF89B7826089BF1CC08E34E5
S11300B069F4789480E88FBD89E08EBD8FE18BBDB3
S11300C08FE38ABD89B7806189BF0DC0853489F407
S11300D0789489EF83BD88E285BD85B5836085BD4D
S11300E089B7806889BF509377004093760080E099
S11300F0089581E008951F920F920FB60F92112474
S11301002F933F934F935F936F937F938F939F931B
S1130110AF93BF93EF93FF93E0917600F091770054
S1130120309709F00995FF91EF91BF91AF919F919D
S11301308F917F916F915F914F913F912F910F908C
S11301400FBE0F901F9018951F920F920FB60F922B
S113015011242F933F934F935F936F937F938F93C8
S11301609F93AF93BF93EF93FF93E0917600F09149
S11301707700309709F00995FF91EF91BF91AF9106
S11301809F918F917F916F915F914F913F912F91AB
S11301900F900FBE0F901F9018951F920F920FB6DD
S11301A00F9211242F933F934F935F936F937F93F9
S11301B08F939F93AF93BF93EF93FF93E091760058
S11301C0F0917700309709F00995FF91EF91BF9175
S11301D0AF919F918F917F916F915F914F913F91DB
S11301E02F910F900FBE0F901F9018958BB38F5FB8
S11301F08BBB089588B38F5F88BB089585B38F5FE9
S113020085BB0895CF93DF9300D000D000D0CDB745
S1130210DEB78FEF81BB84BB87BB8ABB83E50E94BB
S11302200C020F2EF5E08F2EF02D0F2EF6E6AF2EDA
S1130230F0E0BF2EF02DC12CD12C760101E022E399
S113024030E040E050E066EF70E0CE0101960E949D
S113025029020F2EF9E08F2EF02D0F2EFBE6AF2E84
S1130260F0E0BF2EF02D0F2EFEE1CF2ED12CE12C8D
S1130270F12CF02D02E024E630E040E050E06AEF9B
S113028070E0CE0103960E9429026894882482F8C3
S11302900F2EF0E7AF2EF0E0BF2EF02D0F2EF9E178
S11302A0CF2ED12CE12CF12CF02D03E029E130E00C
S11302B040E050E06EEF70E0CE0105960E94290206
S11302C00E948E02FFCFCF93DF93EC01E989FA8974
S11302D08F81988509951E8289859A85AB85BC8511
S11302E08D879E87AF87B88BDF91CF910895CF9389
S11302F0DF93009709F444C06115710509F442C005
S1130300EC012C8125300CF03FC02F5F2C83A88199
S1130310B981109749F479836883FB0111821082B3
S11303201382128280E031C0EB019C8114968C917F
S11303301497891710F416C0DF01ED91FC91119701
S11303408481891718F03097B9F702C0309769F49F
S113035011967C936E93FB0111821082B383A28366
S113036080E013C0FD01A0E0B0E0EB01F983E88375
S1130370BB83AA836D937C937383628380E005C0FF
S113038081E003C081E001C083E0DF91CF91089553
S11303900F931F93FC0145855685678570894150ED
S11303A0510961097109458756876787708B0091E8
S11303B082001091830020918400309185000F5FAA
S11303C01F4F2F4F3F4F00938200109383002093C1
S11303D0840030938500452B462B472B39F4BC0110
S11303E081E086838DE790E00E9477011F910F9151
S11303F00895CF93DF93C0917800D091790020972E
S113040041F0CE010E94C8010990D881C02D2097E7
S1130410C1F7DF91CF91089510928200109283006A
S11304201092840010928500EDE7F0E013821282AE
S1130430118210821482E8E7F0E0138212821182A2
S11304401082148249EF51E068EE73E00E94490083
S113045008952F923F924F925F926F927F928F9264
S11304609F92AF92BF92CF92DF92EF92FF920F933F
S11304701F93CF93DF9300D0CDB7DEB79A838983E0
S11304803B0119012A01902E8CE190E00E94A30205
S11304908C01009769F1FC0195822186328643869E
S11304A05486E981FA8191838083FC018482728A73
S11304B0618AD201C1018C0D9D1DAE1DBF1D8587B2
S11304C09687A787B08BB501C80143960E94C403E1
S11304D0CD28CE28CF2831F4B8018DE790E00E94D2
S11304E0770107C0B80188E790E00E94770101C056
S11304F085E00F900F90DF91CF911F910F91FF90A6
S1130500EF90DF90CF90BF90AF909F908F907F90AF
S11305106F905F904F903F902F9008950DE710E0FB
S1130520F801C081D1812097D9F3CE010E946301E3
S1130530BE0188E790E00E947701F801C081D18173
S1130540209799F7EDCF0F931F93CF93DF938230CA
S1130550910510F482E090E0E0918800F091890028
S113056020E030E0A0E0B0E0309719F14081518103
S11305700281138148175907C8F08417950769F455
S1130580109731F012960C93129713961C9327C070
S1130590009388001093890022C02115310519F0B9
S11305A04217530718F49A01BD01EF01DF01F80166
S11305B0DBCF21153105F9F0281B390B2430310527
S11305C080F48A819B816115710521F0FB0193837D
S11305D0828304C09093890080938800FE01329640
S11305E044C0FE01E20FF31F81939193225031091D
S11305F0398328833AC02091860030918700232BC9
S113060041F420916200309163003093870020937D
S1130610860020916000309161002115310541F47C
S11306202DB73EB74091640050916500241B350BF3
S1130630E0918600F0918700E217F307A0F42E1BE7
S11306403F0B2817390778F0AC014E5F5F4F241732
S1130650350748F04E0F5F1F509387004093860084
S11306608193919302C0E0E0F0E0CF01DF91CF915C
S11306701F910F910895CF93DF93009709F481C0E0
S1130680FC01329713821282A0918800B0918900F4
S1130690109781F420813181820F931F209186006D
S11306A0309187002817390751F5F0938700E093BC
S11306B0860067C0ED0120E030E0CE17DF0740F48C
S11306C04A815B819E0141155105F1F0EA01F5CFA4
S11306D0D383C28340815181840F951FC817D907E2
S11306E059F488819981840F951F029691838083A0
S11306F08A819B81938382832115310529F4F093A8
S11307008900E09388003DC0E901FB83EA834991B5
S11307105991C40FD51FEC17FD0761F480819181B5
S1130720840F951F0296E9019983888382819381BE
S11307309B838A83E0E0F0E012968D919C9113975D
S1130740009719F0FD01DC01F7CF8D919C91119771
S11307509D012E5F3F4F820F931F209186003091A1
S113076087002817390769F4309729F41092890013
S11307701092880002C013821282B0938700A09363
S11307808600DF91CF910895FB01DC0101900D9269
S10D07900020E1F70895F894FFCF6C
S113079A00008A00200054534B310054534B32005A
S10907AA54534B33000020
S9030000FC
